{
  "contractName": "DMartAdmin",
  "abi": [
    {
      "constant": true,
      "inputs": [
        {
          "name": "_operator",
          "type": "address"
        },
        {
          "name": "_role",
          "type": "string"
        }
      ],
      "name": "checkRole",
      "outputs": [],
      "payable": false,
      "stateMutability": "view",
      "type": "function"
    },
    {
      "constant": true,
      "inputs": [
        {
          "name": "_operator",
          "type": "address"
        },
        {
          "name": "_role",
          "type": "string"
        }
      ],
      "name": "hasRole",
      "outputs": [
        {
          "name": "",
          "type": "bool"
        }
      ],
      "payable": false,
      "stateMutability": "view",
      "type": "function"
    },
    {
      "constant": false,
      "inputs": [],
      "name": "unpause",
      "outputs": [],
      "payable": false,
      "stateMutability": "nonpayable",
      "type": "function"
    },
    {
      "constant": true,
      "inputs": [
        {
          "name": "",
          "type": "uint256"
        }
      ],
      "name": "storeOwners",
      "outputs": [
        {
          "name": "",
          "type": "address"
        }
      ],
      "payable": false,
      "stateMutability": "view",
      "type": "function"
    },
    {
      "constant": true,
      "inputs": [],
      "name": "paused",
      "outputs": [
        {
          "name": "",
          "type": "bool"
        }
      ],
      "payable": false,
      "stateMutability": "view",
      "type": "function"
    },
    {
      "constant": true,
      "inputs": [
        {
          "name": "",
          "type": "address"
        }
      ],
      "name": "indexOfStoreOwners",
      "outputs": [
        {
          "name": "",
          "type": "uint256"
        }
      ],
      "payable": false,
      "stateMutability": "view",
      "type": "function"
    },
    {
      "constant": false,
      "inputs": [],
      "name": "pause",
      "outputs": [],
      "payable": false,
      "stateMutability": "nonpayable",
      "type": "function"
    },
    {
      "constant": true,
      "inputs": [],
      "name": "owner",
      "outputs": [
        {
          "name": "",
          "type": "address"
        }
      ],
      "payable": false,
      "stateMutability": "view",
      "type": "function"
    },
    {
      "constant": false,
      "inputs": [
        {
          "name": "newOwner",
          "type": "address"
        }
      ],
      "name": "transferOwnership",
      "outputs": [],
      "payable": false,
      "stateMutability": "nonpayable",
      "type": "function"
    },
    {
      "inputs": [],
      "payable": false,
      "stateMutability": "nonpayable",
      "type": "constructor"
    },
    {
      "anonymous": false,
      "inputs": [
        {
          "indexed": true,
          "name": "storeOwner",
          "type": "address"
        }
      ],
      "name": "StoreOwnerAdded",
      "type": "event"
    },
    {
      "anonymous": false,
      "inputs": [
        {
          "indexed": true,
          "name": "storeOwner",
          "type": "address"
        }
      ],
      "name": "StoreOwnerRemoved",
      "type": "event"
    },
    {
      "anonymous": false,
      "inputs": [],
      "name": "Pause",
      "type": "event"
    },
    {
      "anonymous": false,
      "inputs": [],
      "name": "Unpause",
      "type": "event"
    },
    {
      "anonymous": false,
      "inputs": [
        {
          "indexed": true,
          "name": "previousOwner",
          "type": "address"
        },
        {
          "indexed": true,
          "name": "newOwner",
          "type": "address"
        }
      ],
      "name": "OwnershipTransferred",
      "type": "event"
    },
    {
      "anonymous": false,
      "inputs": [
        {
          "indexed": true,
          "name": "operator",
          "type": "address"
        },
        {
          "indexed": false,
          "name": "role",
          "type": "string"
        }
      ],
      "name": "RoleAdded",
      "type": "event"
    },
    {
      "anonymous": false,
      "inputs": [
        {
          "indexed": true,
          "name": "operator",
          "type": "address"
        },
        {
          "indexed": false,
          "name": "role",
          "type": "string"
        }
      ],
      "name": "RoleRemoved",
      "type": "event"
    },
    {
      "constant": false,
      "inputs": [
        {
          "name": "_admin",
          "type": "address"
        }
      ],
      "name": "addAdmin",
      "outputs": [
        {
          "name": "",
          "type": "bool"
        }
      ],
      "payable": false,
      "stateMutability": "nonpayable",
      "type": "function"
    },
    {
      "constant": false,
      "inputs": [
        {
          "name": "_admin",
          "type": "address"
        }
      ],
      "name": "removeAdmin",
      "outputs": [
        {
          "name": "",
          "type": "bool"
        }
      ],
      "payable": false,
      "stateMutability": "nonpayable",
      "type": "function"
    },
    {
      "constant": false,
      "inputs": [
        {
          "name": "_storeOwner",
          "type": "address"
        }
      ],
      "name": "addStoreOwner",
      "outputs": [
        {
          "name": "",
          "type": "bool"
        }
      ],
      "payable": false,
      "stateMutability": "nonpayable",
      "type": "function"
    },
    {
      "constant": false,
      "inputs": [
        {
          "name": "_storeOwner",
          "type": "address"
        }
      ],
      "name": "removeStoreOwner",
      "outputs": [
        {
          "name": "",
          "type": "bool"
        }
      ],
      "payable": false,
      "stateMutability": "nonpayable",
      "type": "function"
    }
  ],
  "bytecode": "0x60806040526001805460a060020a60ff021916905534801561002057600080fd5b5060018054600160a060020a03191633600160a060020a0381169190911790915560408051808201909152600581527f41646d696e0000000000000000000000000000000000000000000000000000006020820152610088919064010000000061008d810204565b6101d0565b610104826000836040518082805190602001908083835b602083106100c35780518252601f1990920191602091820191016100a4565b51815160209384036101000a60001901801990921691161790529201948552506040519384900301909220929150506401000000006101ab8102610c881704565b81600160a060020a03167fbfec83d64eaa953f2708271a023ab9ee82057f8f3578d548c1a4ba0b5b700489826040518080602001828103825283818151815260200191508051906020019080838360005b8381101561016d578181015183820152602001610155565b50505050905090810190601f16801561019a5780820380516001836020036101000a031916815260200191505b509250505060405180910390a25050565b600160a060020a0316600090815260209190915260409020805460ff19166001179055565b610d39806101df6000396000f3006080604052600436106100c45763ffffffff7c01000000000000000000000000000000000000000000000000000000006000350416630988ca8c81146100c95780631785f53c14610132578063217fe6c6146101675780633f4ba83a146101ce57806344d50993146101e35780635c975abb146102175780636174fdd11461022c578063704802751461024d5780638106f3b21461026e5780638456cb59146102a15780638da5cb5b146102b65780639adeb5f1146102cb578063f2fde38b146102ec575b600080fd5b3480156100d557600080fd5b5060408051602060046024803582810135601f8101859004850286018501909652858552610130958335600160a060020a031695369560449491939091019190819084018382808284375094975061030d9650505050505050565b005b34801561013e57600080fd5b50610153600160a060020a036004351661037b565b604080519115158252519081900360200190f35b34801561017357600080fd5b5060408051602060046024803582810135601f8101859004850286018501909652858552610153958335600160a060020a03169536956044949193909101919081908401838280828437509497506104159650505050505050565b3480156101da57600080fd5b50610130610488565b3480156101ef57600080fd5b506101fb600435610504565b60408051600160a060020a039092168252519081900360200190f35b34801561022357600080fd5b5061015361052c565b34801561023857600080fd5b50610153600160a060020a036004351661053c565b34801561025957600080fd5b50610153600160a060020a036004351661060b565b34801561027a57600080fd5b5061028f600160a060020a036004351661069c565b60408051918252519081900360200190f35b3480156102ad57600080fd5b506101306106ae565b3480156102c257600080fd5b506101fb61072f565b3480156102d757600080fd5b50610153600160a060020a036004351661073e565b3480156102f857600080fd5b50610130600160a060020a0360043516610869565b610377826000836040518082805190602001908083835b602083106103435780518252601f199092019160209182019101610324565b51815160209384036101000a6000190180199092169116179052920194855250604051938490030190922092915050610902565b5050565b60015460009033600160a060020a0390811691161461039957600080fd5b600160a060020a03821615156103ae57600080fd5b6103d88260408051908101604052806005815260200160d960020a6420b236b4b702815250610415565b15156103e357600080fd5b61040d8260408051908101604052806005815260200160d960020a6420b236b4b702815250610917565b506001919050565b6000610481836000846040518082805190602001908083835b6020831061044d5780518252601f19909201916020918201910161042e565b51815160209384036101000a6000190180199092169116179052920194855250604051938490030190922092915050610a28565b9392505050565b60015433600160a060020a039081169116146104a357600080fd5b60015460a060020a900460ff1615156104bb57600080fd5b6001805474ff0000000000000000000000000000000000000000191690556040517f7805862f689e2f13df9f062ff482ad3ad112aca9e0847911ed832e158c525b3390600090a1565b600280548290811061051257fe5b600091825260209091200154600160a060020a0316905081565b60015460a060020a900460ff1681565b60015460009060a060020a900460ff161561055657600080fd5b604080518082019091526005815260d960020a6420b236b4b702602082015261057f338261030d565b600160a060020a038316151561059457600080fd5b6105c1836040805190810160405280600b8152602001600080516020610cee833981519152815250610415565b15156105cc57600080fd5b6105d583610a47565b610602836040805190810160405280600b8152602001600080516020610cee833981519152815250610917565b50600192915050565b60015460009033600160a060020a0390811691161461062957600080fd5b600160a060020a038216151561063e57600080fd5b6106688260408051908101604052806005815260200160d960020a6420b236b4b702815250610415565b1561067257600080fd5b61040d8260408051908101604052806005815260200160d960020a6420b236b4b702815250610b94565b60036020526000908152604090205481565b60015433600160a060020a039081169116146106c957600080fd5b60015460a060020a900460ff16156106e057600080fd5b6001805474ff0000000000000000000000000000000000000000191660a060020a1790556040517f6985a02210a168e66602d3235cb6db0e70f92b3ba4d376a33c0f3d9434bff62590600090a1565b600154600160a060020a031681565b60015460009060a060020a900460ff161561075857600080fd5b604080518082019091526005815260d960020a6420b236b4b7026020820152610781338261030d565b600160a060020a038316151561079657600080fd5b6107c3836040805190810160405280600b8152602001600080516020610cee833981519152815250610415565b156107cd57600080fd5b600280546001810182557f405787fa12a823e0f2b7631cc41b3ba8828b3321ca811111fa75cd3aa3bb5ace01805473ffffffffffffffffffffffffffffffffffffffff1916600160a060020a03861690811790915590546000918252600360209081526040928390206000199092019091558151808301909252600b8252600080516020610cee83398151915290820152610602908490610b94565b60015433600160a060020a0390811691161461088457600080fd5b600160a060020a038116151561089957600080fd5b600154604051600160a060020a038084169216907f8be0079c531659141344cd1fd0a4f28419497f9722a3daafe3b4186f6b6457e090600090a36001805473ffffffffffffffffffffffffffffffffffffffff1916600160a060020a0392909216919091179055565b61090c8282610a28565b151561037757600080fd5b610981826000836040518082805190602001908083835b6020831061094d5780518252601f19909201916020918201910161092e565b51815160209384036101000a6000190180199092169116179052920194855250604051938490030190922092915050610c66565b81600160a060020a03167fd211483f91fc6eff862467f8de606587a30c8fc9981056f051b897a418df803a826040518080602001828103825283818151815260200191508051906020019080838360005b838110156109ea5781810151838201526020016109d2565b50505050905090810190601f168015610a175780820380516001836020036101000a031916815260200191505b509250505060405180910390a25050565b600160a060020a03166000908152602091909152604090205460ff1690565b60015460009060a060020a900460ff1615610a6157600080fd5b604080518082019091526005815260d960020a6420b236b4b7026020820152610a8a338261030d565b600160a060020a0383166000908152600360205260408120549250821015610ab157610b8f565b60025460011015610b7a57600280546000198101908110610ace57fe5b60009182526020909120015460028054600160a060020a039092169184908110610af457fe5b6000918252602090912001805473ffffffffffffffffffffffffffffffffffffffff1916600160a060020a0392909216919091179055600280546000198101908110610b3c57fe5b60009182526020808320909101805473ffffffffffffffffffffffffffffffffffffffff19169055600160a060020a03851682526003905260408120555b6002805490610b8d906000198301610cad565b505b505050565b610bfe826000836040518082805190602001908083835b60208310610bca5780518252601f199092019160209182019101610bab565b51815160209384036101000a6000190180199092169116179052920194855250604051938490030190922092915050610c88565b81600160a060020a03167fbfec83d64eaa953f2708271a023ab9ee82057f8f3578d548c1a4ba0b5b70048982604051808060200182810382528381815181526020019150805190602001908083836000838110156109ea5781810151838201526020016109d2565b600160a060020a0316600090815260209190915260409020805460ff19169055565b600160a060020a0316600090815260209190915260409020805460ff19166001179055565b815481835581811115610b8f57600083815260209020610b8f918101908301610cea91905b80821115610ce65760008155600101610cd2565b5090565b90560053746f7265204f776e6572000000000000000000000000000000000000000000a165627a7a72305820b7ebfa74deb8d599663082dc5a816e7fefa78d5d5194c9f0ffefa2bb3c1c59030029",
  "source": "pragma solidity ^0.4.23;\n\nimport \"./access/RBAC.sol\";\nimport \"../installed_contracts/zeppelin/contracts/lifecycle/Pausable.sol\";\n\n/**\n * @title DMart Admin controls \n * @author Alex Scott (@alsco77)\n * @dev Manage role access for usage with DMartStore contracts\n */\ncontract DMartAdmin is RBAC, Pausable {\n    \n    address[] public storeOwners;\n    mapping(address => uint) public indexOfStoreOwners;\n\n    string private constant ROLE_ADMIN = \"Admin\";\n    string private constant ROLE_STORE_OWNER = \"Store Owner\";\n\n    event StoreOwnerAdded(address indexed storeOwner);\n    event StoreOwnerRemoved(address indexed storeOwner);\n\n\n    /** @dev Basic contract constructor */\n    constructor() public {\n        addRole(msg.sender, ROLE_ADMIN);\n    }\n\n    /** \n      * @dev Grants admin role to specific address\n      * @param _admin Address of user to receive role\n      * @return bool Success of function\n      */\n    function addAdmin(address _admin) public \n    onlyOwner\n    returns (bool) {\n        require(_admin != address(0));\n        require(!hasRole(_admin, ROLE_ADMIN));\n\n        addRole(_admin, ROLE_ADMIN);\n        return(true);\n    }     \n    \n    /** @dev Revokes admin role from specific address\n      * @param _admin Address of user to revoke role\n      * @return bool Success of function\n      */\n    function removeAdmin(address _admin) public \n    onlyOwner\n    returns (bool) {\n        require(_admin != address(0));\n        require(hasRole(_admin, ROLE_ADMIN));\n\n        removeRole(_admin, ROLE_ADMIN);\n        return(true);\n    } \n\n    /** \n      * @dev Adds user as Store Owner\n      * @param _storeOwner Address of user to receive role\n      * @return bool Success of function\n      */\n    function addStoreOwner(address _storeOwner) public \n    whenNotPaused\n    onlyRole(ROLE_ADMIN) \n    returns (bool) {\n        require(_storeOwner != address(0));\n        require(!hasRole(_storeOwner, ROLE_STORE_OWNER));\n\n        storeOwners.push(_storeOwner);\n        indexOfStoreOwners[_storeOwner] = storeOwners.length - 1;\n\n        addRole(_storeOwner, ROLE_STORE_OWNER);\n        return(true);\n    } \n\n    /**\n      * @dev Removes user as Store Owner\n      * @param _storeOwner Address of store owner to revoke\n      * @return bool Success of function\n      */\n    function removeStoreOwner(address _storeOwner) public \n    whenNotPaused\n    onlyRole(ROLE_ADMIN) \n    returns (bool) {\n        require(_storeOwner != address(0));\n        require(hasRole(_storeOwner, ROLE_STORE_OWNER));\n\n        removeStoreOwnerFromArray(_storeOwner);\n        removeRole(_storeOwner, ROLE_STORE_OWNER);\n        return(true);\n    }\n\n    /**\n      * @dev Helper method to remove store owner from data access\n      * @param _storeOwner Address of store owner\n      */\n    function removeStoreOwnerFromArray(address _storeOwner) private \n    whenNotPaused\n    onlyRole(ROLE_ADMIN) {\n        uint index = indexOfStoreOwners[_storeOwner];\n        if (index < 0) return;\n\n        if (storeOwners.length > 1) {\n            storeOwners[index] = storeOwners[storeOwners.length-1];\n            delete(storeOwners[storeOwners.length-1]); // recover gas\n            delete(indexOfStoreOwners[_storeOwner]);\n        }\n\n        storeOwners.length--;\n    }\n}\n",
  "sourcePath": "/home/alex/projects/Decentra-Mart/contracts/DMartAdmin.sol",
  "compiler": {
    "name": "solc",
    "version": "0.4.23+commit.124ca40d.Emscripten.clang"
  },
  "schemaVersion": "2.0.0",
  "updatedAt": "2018-08-24T22:42:29.596Z"
}