{
  "contractName": "DMartAdmin",
  "abi": [
    {
      "constant": true,
      "inputs": [
        {
          "name": "_operator",
          "type": "address"
        },
        {
          "name": "_role",
          "type": "string"
        }
      ],
      "name": "checkRole",
      "outputs": [],
      "payable": false,
      "stateMutability": "view",
      "type": "function"
    },
    {
      "constant": true,
      "inputs": [
        {
          "name": "_operator",
          "type": "address"
        },
        {
          "name": "_role",
          "type": "string"
        }
      ],
      "name": "hasRole",
      "outputs": [
        {
          "name": "",
          "type": "bool"
        }
      ],
      "payable": false,
      "stateMutability": "view",
      "type": "function"
    },
    {
      "constant": false,
      "inputs": [],
      "name": "unpause",
      "outputs": [],
      "payable": false,
      "stateMutability": "nonpayable",
      "type": "function"
    },
    {
      "constant": true,
      "inputs": [
        {
          "name": "",
          "type": "uint256"
        }
      ],
      "name": "storeOwners",
      "outputs": [
        {
          "name": "",
          "type": "address"
        }
      ],
      "payable": false,
      "stateMutability": "view",
      "type": "function"
    },
    {
      "constant": true,
      "inputs": [],
      "name": "paused",
      "outputs": [
        {
          "name": "",
          "type": "bool"
        }
      ],
      "payable": false,
      "stateMutability": "view",
      "type": "function"
    },
    {
      "constant": true,
      "inputs": [
        {
          "name": "",
          "type": "address"
        }
      ],
      "name": "indexOfStoreOwners",
      "outputs": [
        {
          "name": "",
          "type": "uint256"
        }
      ],
      "payable": false,
      "stateMutability": "view",
      "type": "function"
    },
    {
      "constant": false,
      "inputs": [],
      "name": "pause",
      "outputs": [],
      "payable": false,
      "stateMutability": "nonpayable",
      "type": "function"
    },
    {
      "constant": true,
      "inputs": [],
      "name": "owner",
      "outputs": [
        {
          "name": "",
          "type": "address"
        }
      ],
      "payable": false,
      "stateMutability": "view",
      "type": "function"
    },
    {
      "constant": false,
      "inputs": [
        {
          "name": "newOwner",
          "type": "address"
        }
      ],
      "name": "transferOwnership",
      "outputs": [],
      "payable": false,
      "stateMutability": "nonpayable",
      "type": "function"
    },
    {
      "inputs": [],
      "payable": false,
      "stateMutability": "nonpayable",
      "type": "constructor"
    },
    {
      "anonymous": false,
      "inputs": [
        {
          "indexed": true,
          "name": "storeOwner",
          "type": "address"
        }
      ],
      "name": "StoreOwnerAdded",
      "type": "event"
    },
    {
      "anonymous": false,
      "inputs": [
        {
          "indexed": true,
          "name": "storeOwner",
          "type": "address"
        }
      ],
      "name": "StoreOwnerRemoved",
      "type": "event"
    },
    {
      "anonymous": false,
      "inputs": [],
      "name": "Pause",
      "type": "event"
    },
    {
      "anonymous": false,
      "inputs": [],
      "name": "Unpause",
      "type": "event"
    },
    {
      "anonymous": false,
      "inputs": [
        {
          "indexed": true,
          "name": "previousOwner",
          "type": "address"
        },
        {
          "indexed": true,
          "name": "newOwner",
          "type": "address"
        }
      ],
      "name": "OwnershipTransferred",
      "type": "event"
    },
    {
      "anonymous": false,
      "inputs": [
        {
          "indexed": true,
          "name": "operator",
          "type": "address"
        },
        {
          "indexed": false,
          "name": "role",
          "type": "string"
        }
      ],
      "name": "RoleAdded",
      "type": "event"
    },
    {
      "anonymous": false,
      "inputs": [
        {
          "indexed": true,
          "name": "operator",
          "type": "address"
        },
        {
          "indexed": false,
          "name": "role",
          "type": "string"
        }
      ],
      "name": "RoleRemoved",
      "type": "event"
    },
    {
      "constant": false,
      "inputs": [
        {
          "name": "_admin",
          "type": "address"
        }
      ],
      "name": "addAdmin",
      "outputs": [
        {
          "name": "",
          "type": "bool"
        }
      ],
      "payable": false,
      "stateMutability": "nonpayable",
      "type": "function"
    },
    {
      "constant": false,
      "inputs": [
        {
          "name": "_admin",
          "type": "address"
        }
      ],
      "name": "removeAdmin",
      "outputs": [
        {
          "name": "",
          "type": "bool"
        }
      ],
      "payable": false,
      "stateMutability": "nonpayable",
      "type": "function"
    },
    {
      "constant": false,
      "inputs": [
        {
          "name": "_storeOwner",
          "type": "address"
        }
      ],
      "name": "addStoreOwner",
      "outputs": [
        {
          "name": "",
          "type": "bool"
        }
      ],
      "payable": false,
      "stateMutability": "nonpayable",
      "type": "function"
    },
    {
      "constant": true,
      "inputs": [],
      "name": "getStoreOwners",
      "outputs": [
        {
          "name": "",
          "type": "address[]"
        }
      ],
      "payable": false,
      "stateMutability": "view",
      "type": "function"
    },
    {
      "constant": false,
      "inputs": [
        {
          "name": "_storeOwner",
          "type": "address"
        }
      ],
      "name": "removeStoreOwner",
      "outputs": [
        {
          "name": "",
          "type": "bool"
        }
      ],
      "payable": false,
      "stateMutability": "nonpayable",
      "type": "function"
    }
  ],
  "bytecode": "0x60806040526001805460a060020a60ff021916905534801561002057600080fd5b5060018054600160a060020a03191633600160a060020a0381169190911790915560408051808201909152600581527f41646d696e0000000000000000000000000000000000000000000000000000006020820152610088919064010000000061008d810204565b6101d0565b610104826000836040518082805190602001908083835b602083106100c35780518252601f1990920191602091820191016100a4565b51815160209384036101000a60001901801990921691161790529201948552506040519384900301909220929150506401000000006101ab8102610d731704565b81600160a060020a03167fbfec83d64eaa953f2708271a023ab9ee82057f8f3578d548c1a4ba0b5b700489826040518080602001828103825283818151815260200191508051906020019080838360005b8381101561016d578181015183820152602001610155565b50505050905090810190601f16801561019a5780820380516001836020036101000a031916815260200191505b509250505060405180910390a25050565b600160a060020a0316600090815260209190915260409020805460ff19166001179055565b610e21806101df6000396000f3006080604052600436106100cf5763ffffffff7c01000000000000000000000000000000000000000000000000000000006000350416630988ca8c81146100d45780631785f53c1461013d578063217fe6c6146101725780633f4ba83a146101d957806344d50993146101ee5780635c975abb146102225780636174fdd11461023757806370480275146102585780638106f3b2146102795780638456cb59146102ac5780638da5cb5b146102c157806391f4245a146102d65780639adeb5f11461033b578063f2fde38b1461035c575b600080fd5b3480156100e057600080fd5b5060408051602060046024803582810135601f810185900485028601850190965285855261013b958335600160a060020a031695369560449491939091019190819084018382808284375094975061037d9650505050505050565b005b34801561014957600080fd5b5061015e600160a060020a03600435166103eb565b604080519115158252519081900360200190f35b34801561017e57600080fd5b5060408051602060046024803582810135601f810185900485028601850190965285855261015e958335600160a060020a03169536956044949193909101919081908401838280828437509497506104859650505050505050565b3480156101e557600080fd5b5061013b6104f8565b3480156101fa57600080fd5b50610206600435610574565b60408051600160a060020a039092168252519081900360200190f35b34801561022e57600080fd5b5061015e61059c565b34801561024357600080fd5b5061015e600160a060020a03600435166105ac565b34801561026457600080fd5b5061015e600160a060020a036004351661067b565b34801561028557600080fd5b5061029a600160a060020a036004351661070c565b60408051918252519081900360200190f35b3480156102b857600080fd5b5061013b61071e565b3480156102cd57600080fd5b5061020661079f565b3480156102e257600080fd5b506102eb6107ae565b60408051602080825283518183015283519192839290830191858101910280838360005b8381101561032757818101518382015260200161030f565b505050509050019250505060405180910390f35b34801561034757600080fd5b5061015e600160a060020a0360043516610829565b34801561036857600080fd5b5061013b600160a060020a0360043516610954565b6103e7826000836040518082805190602001908083835b602083106103b35780518252601f199092019160209182019101610394565b51815160209384036101000a60001901801990921691161790529201948552506040519384900301909220929150506109ed565b5050565b60015460009033600160a060020a0390811691161461040957600080fd5b600160a060020a038216151561041e57600080fd5b6104488260408051908101604052806005815260200160d960020a6420b236b4b702815250610485565b151561045357600080fd5b61047d8260408051908101604052806005815260200160d960020a6420b236b4b702815250610a02565b506001919050565b60006104f1836000846040518082805190602001908083835b602083106104bd5780518252601f19909201916020918201910161049e565b51815160209384036101000a6000190180199092169116179052920194855250604051938490030190922092915050610b13565b9392505050565b60015433600160a060020a0390811691161461051357600080fd5b60015460a060020a900460ff16151561052b57600080fd5b6001805474ff0000000000000000000000000000000000000000191690556040517f7805862f689e2f13df9f062ff482ad3ad112aca9e0847911ed832e158c525b3390600090a1565b600280548290811061058257fe5b600091825260209091200154600160a060020a0316905081565b60015460a060020a900460ff1681565b60015460009060a060020a900460ff16156105c657600080fd5b604080518082019091526005815260d960020a6420b236b4b70260208201526105ef338261037d565b600160a060020a038316151561060457600080fd5b610631836040805190810160405280600b8152602001600080516020610dd6833981519152815250610485565b151561063c57600080fd5b61064583610b32565b610672836040805190810160405280600b8152602001600080516020610dd6833981519152815250610a02565b50600192915050565b60015460009033600160a060020a0390811691161461069957600080fd5b600160a060020a03821615156106ae57600080fd5b6106d88260408051908101604052806005815260200160d960020a6420b236b4b702815250610485565b156106e257600080fd5b61047d8260408051908101604052806005815260200160d960020a6420b236b4b702815250610c7f565b60036020526000908152604090205481565b60015433600160a060020a0390811691161461073957600080fd5b60015460a060020a900460ff161561075057600080fd5b6001805474ff0000000000000000000000000000000000000000191660a060020a1790556040517f6985a02210a168e66602d3235cb6db0e70f92b3ba4d376a33c0f3d9434bff62590600090a1565b600154600160a060020a031681565b60015460609060a060020a900460ff16156107c857600080fd5b600280548060200260200160405190810160405280929190818152602001828054801561081e57602002820191906000526020600020905b8154600160a060020a03168152600190910190602001808311610800575b505050505090505b90565b60015460009060a060020a900460ff161561084357600080fd5b604080518082019091526005815260d960020a6420b236b4b702602082015261086c338261037d565b600160a060020a038316151561088157600080fd5b6108ae836040805190810160405280600b8152602001600080516020610dd6833981519152815250610485565b156108b857600080fd5b600280546001810182557f405787fa12a823e0f2b7631cc41b3ba8828b3321ca811111fa75cd3aa3bb5ace01805473ffffffffffffffffffffffffffffffffffffffff1916600160a060020a03861690811790915590546000918252600360209081526040928390206000199092019091558151808301909252600b8252600080516020610dd683398151915290820152610672908490610c7f565b60015433600160a060020a0390811691161461096f57600080fd5b600160a060020a038116151561098457600080fd5b600154604051600160a060020a038084169216907f8be0079c531659141344cd1fd0a4f28419497f9722a3daafe3b4186f6b6457e090600090a36001805473ffffffffffffffffffffffffffffffffffffffff1916600160a060020a0392909216919091179055565b6109f78282610b13565b15156103e757600080fd5b610a6c826000836040518082805190602001908083835b60208310610a385780518252601f199092019160209182019101610a19565b51815160209384036101000a6000190180199092169116179052920194855250604051938490030190922092915050610d51565b81600160a060020a03167fd211483f91fc6eff862467f8de606587a30c8fc9981056f051b897a418df803a826040518080602001828103825283818151815260200191508051906020019080838360005b83811015610ad5578181015183820152602001610abd565b50505050905090810190601f168015610b025780820380516001836020036101000a031916815260200191505b509250505060405180910390a25050565b600160a060020a03166000908152602091909152604090205460ff1690565b60015460009060a060020a900460ff1615610b4c57600080fd5b604080518082019091526005815260d960020a6420b236b4b7026020820152610b75338261037d565b600160a060020a0383166000908152600360205260408120549250821015610b9c57610c7a565b60025460011015610c6557600280546000198101908110610bb957fe5b60009182526020909120015460028054600160a060020a039092169184908110610bdf57fe5b6000918252602090912001805473ffffffffffffffffffffffffffffffffffffffff1916600160a060020a0392909216919091179055600280546000198101908110610c2757fe5b60009182526020808320909101805473ffffffffffffffffffffffffffffffffffffffff19169055600160a060020a03851682526003905260408120555b6002805490610c78906000198301610d98565b505b505050565b610ce9826000836040518082805190602001908083835b60208310610cb55780518252601f199092019160209182019101610c96565b51815160209384036101000a6000190180199092169116179052920194855250604051938490030190922092915050610d73565b81600160a060020a03167fbfec83d64eaa953f2708271a023ab9ee82057f8f3578d548c1a4ba0b5b7004898260405180806020018281038252838181518152602001915080519060200190808383600083811015610ad5578181015183820152602001610abd565b600160a060020a0316600090815260209190915260409020805460ff19169055565b600160a060020a0316600090815260209190915260409020805460ff19166001179055565b815481835581811115610c7a57600083815260209020610c7a91810190830161082691905b80821115610dd15760008155600101610dbd565b5090560053746f7265204f776e6572000000000000000000000000000000000000000000a165627a7a723058209d1b5b5eea183f004cd957903fc578c1fb273d8c53ea039f92cf8768cb96fc360029",
  "source": "pragma solidity ^0.4.23;\n\nimport \"./access/RBAC.sol\";\nimport \"../installed_contracts/zeppelin/contracts/lifecycle/Pausable.sol\";\n\n/**\n * @title DMart Admin controls \n * @author Alex Scott (@alsco77)\n * @dev Manage role access for usage with DMartStore contracts\n */\ncontract DMartAdmin is RBAC, Pausable {\n    \n    address[] public storeOwners;\n    mapping(address => uint) public indexOfStoreOwners;\n\n    string private constant ROLE_ADMIN = \"Admin\";\n    string private constant ROLE_STORE_OWNER = \"Store Owner\";\n\n    event StoreOwnerAdded(address indexed storeOwner);\n    event StoreOwnerRemoved(address indexed storeOwner);\n\n\n    /** @dev Basic contract constructor */\n    constructor() public {\n        addRole(msg.sender, ROLE_ADMIN);\n    }\n\n    /** \n      * @dev Grants admin role to specific address\n      * @param _admin Address of user to receive role\n      * @return bool Success of function\n      */\n    function addAdmin(address _admin) public \n    onlyOwner\n    returns (bool) {\n        require(_admin != address(0));\n        require(!hasRole(_admin, ROLE_ADMIN));\n\n        addRole(_admin, ROLE_ADMIN);\n        return(true);\n    }     \n    \n    /** @dev Revokes admin role from specific address\n      * @param _admin Address of user to revoke role\n      * @return bool Success of function\n      */\n    function removeAdmin(address _admin) public \n    onlyOwner\n    returns (bool) {\n        require(_admin != address(0));\n        require(hasRole(_admin, ROLE_ADMIN));\n\n        removeRole(_admin, ROLE_ADMIN);\n        return(true);\n    } \n\n    /** \n      * @dev Adds user as Store Owner\n      * @param _storeOwner Address of user to receive role\n      * @return bool Success of function\n      */\n    function addStoreOwner(address _storeOwner) public \n    whenNotPaused\n    onlyRole(ROLE_ADMIN) \n    returns (bool) {\n        require(_storeOwner != address(0));\n        require(!hasRole(_storeOwner, ROLE_STORE_OWNER));\n\n        storeOwners.push(_storeOwner);\n        indexOfStoreOwners[_storeOwner] = storeOwners.length - 1;\n\n        addRole(_storeOwner, ROLE_STORE_OWNER);\n        return(true);\n    } \n\n    /** \n      * @dev Get all store owners\n      * @return array of owner addresses\n      */\n    function getStoreOwners() public \n    whenNotPaused\n    view\n    returns (address[]) {\n        return storeOwners;\n    } \n\n    /**\n      * @dev Removes user as Store Owner\n      * @param _storeOwner Address of store owner to revoke\n      * @return bool Success of function\n      */\n    function removeStoreOwner(address _storeOwner) public \n    whenNotPaused\n    onlyRole(ROLE_ADMIN) \n    returns (bool) {\n        require(_storeOwner != address(0));\n        require(hasRole(_storeOwner, ROLE_STORE_OWNER));\n\n        removeStoreOwnerFromArray(_storeOwner);\n        removeRole(_storeOwner, ROLE_STORE_OWNER);\n        return(true);\n    }\n\n    /**\n      * @dev Helper method to remove store owner from data access\n      * @param _storeOwner Address of store owner\n      */\n    function removeStoreOwnerFromArray(address _storeOwner) private \n    whenNotPaused\n    onlyRole(ROLE_ADMIN) {\n        uint index = indexOfStoreOwners[_storeOwner];\n        if (index < 0) return;\n\n        if (storeOwners.length > 1) {\n            storeOwners[index] = storeOwners[storeOwners.length-1];\n            delete(storeOwners[storeOwners.length-1]); // recover gas\n            delete(indexOfStoreOwners[_storeOwner]);\n        }\n\n        storeOwners.length--;\n    }\n}\n",
  "sourcePath": "/home/alex/projects/Decentra-Mart/contracts/DMartAdmin.sol",
  "compiler": {
    "name": "solc",
    "version": "0.4.23+commit.124ca40d.Emscripten.clang"
  },
  "schemaVersion": "2.0.0",
  "updatedAt": "2018-08-25T04:06:16.135Z"
}