{
  "contractName": "DMartStoreManagement",
  "abi": [
    {
      "constant": false,
      "inputs": [],
      "name": "unpause",
      "outputs": [],
      "payable": false,
      "stateMutability": "nonpayable",
      "type": "function"
    },
    {
      "constant": true,
      "inputs": [],
      "name": "paused",
      "outputs": [
        {
          "name": "",
          "type": "bool"
        }
      ],
      "payable": false,
      "stateMutability": "view",
      "type": "function"
    },
    {
      "constant": false,
      "inputs": [],
      "name": "pause",
      "outputs": [],
      "payable": false,
      "stateMutability": "nonpayable",
      "type": "function"
    },
    {
      "constant": true,
      "inputs": [],
      "name": "owner",
      "outputs": [
        {
          "name": "",
          "type": "address"
        }
      ],
      "payable": false,
      "stateMutability": "view",
      "type": "function"
    },
    {
      "constant": false,
      "inputs": [
        {
          "name": "newOwner",
          "type": "address"
        }
      ],
      "name": "transferOwnership",
      "outputs": [],
      "payable": false,
      "stateMutability": "nonpayable",
      "type": "function"
    },
    {
      "inputs": [
        {
          "name": "_admin",
          "type": "address"
        },
        {
          "name": "_storeFactory",
          "type": "address"
        }
      ],
      "payable": false,
      "stateMutability": "nonpayable",
      "type": "constructor"
    },
    {
      "anonymous": false,
      "inputs": [
        {
          "indexed": true,
          "name": "owner",
          "type": "address"
        },
        {
          "indexed": true,
          "name": "store",
          "type": "address"
        },
        {
          "indexed": false,
          "name": "name",
          "type": "string"
        }
      ],
      "name": "StoreAdded",
      "type": "event"
    },
    {
      "anonymous": false,
      "inputs": [
        {
          "indexed": true,
          "name": "owner",
          "type": "address"
        },
        {
          "indexed": true,
          "name": "store",
          "type": "address"
        }
      ],
      "name": "StoreDeleted",
      "type": "event"
    },
    {
      "anonymous": false,
      "inputs": [],
      "name": "Pause",
      "type": "event"
    },
    {
      "anonymous": false,
      "inputs": [],
      "name": "Unpause",
      "type": "event"
    },
    {
      "anonymous": false,
      "inputs": [
        {
          "indexed": true,
          "name": "previousOwner",
          "type": "address"
        },
        {
          "indexed": true,
          "name": "newOwner",
          "type": "address"
        }
      ],
      "name": "OwnershipTransferred",
      "type": "event"
    },
    {
      "constant": true,
      "inputs": [
        {
          "name": "_storeOwner",
          "type": "address"
        }
      ],
      "name": "getStoresByOwner",
      "outputs": [
        {
          "name": "",
          "type": "address[]"
        }
      ],
      "payable": false,
      "stateMutability": "view",
      "type": "function"
    },
    {
      "constant": false,
      "inputs": [
        {
          "name": "_storeName",
          "type": "string"
        }
      ],
      "name": "addStore",
      "outputs": [
        {
          "name": "success",
          "type": "bool"
        }
      ],
      "payable": false,
      "stateMutability": "nonpayable",
      "type": "function"
    },
    {
      "constant": false,
      "inputs": [
        {
          "name": "_storeOwner",
          "type": "address"
        }
      ],
      "name": "deleteStoreOwner",
      "outputs": [
        {
          "name": "",
          "type": "bool"
        }
      ],
      "payable": false,
      "stateMutability": "nonpayable",
      "type": "function"
    }
  ],
  "bytecode": "0x60806040526000805460a060020a60ff021916905534801561002057600080fd5b50604051604080610b6483398101604052805160209091015160008054600160a060020a03338116600160a060020a031992831617909255600180549483169482169490941790935560028054919092169216919091179055610adc806100886000396000f30060806040526004361061008d5763ffffffff7c01000000000000000000000000000000000000000000000000000000006000350416633f4ba83a8114610092578063544f2dc9146100a95780635c975abb1461011a578063662feffc146101435780638456cb591461019c5780638da5cb5b146101b1578063dcba65af146101e2578063f2fde38b14610203575b600080fd5b34801561009e57600080fd5b506100a7610224565b005b3480156100b557600080fd5b506100ca600160a060020a036004351661029e565b60408051602080825283518183015283519192839290830191858101910280838360005b838110156101065781810151838201526020016100ee565b505050509050019250505060405180910390f35b34801561012657600080fd5b5061012f61032c565b604080519115158252519081900360200190f35b34801561014f57600080fd5b506040805160206004803580820135601f810184900484028501840190955284845261012f94369492936024939284019190819084018382808284375094975061033c9650505050505050565b3480156101a857600080fd5b506100a761067f565b3480156101bd57600080fd5b506101c66106fe565b60408051600160a060020a039092168252519081900360200190f35b3480156101ee57600080fd5b5061012f600160a060020a036004351661070d565b34801561020f57600080fd5b506100a7600160a060020a03600435166109d6565b60005433600160a060020a0390811691161461023f57600080fd5b60005460a060020a900460ff16151561025757600080fd5b6000805474ff0000000000000000000000000000000000000000191681556040517f7805862f689e2f13df9f062ff482ad3ad112aca9e0847911ed832e158c525b339190a1565b60005460609060a060020a900460ff16156102b857600080fd5b600160a060020a0382166000908152600360209081526040918290208054835181840281018401909452808452909183018282801561032057602002820191906000526020600020905b8154600160a060020a03168152600190910190602001808311610302575b50505050509050919050565b60005460a060020a900460ff1681565b60008054819060a060020a900460ff161561035657600080fd5b600154604080518082018252600b81527f53746f7265204f776e65720000000000000000000000000000000000000000006020820190815282517f217fe6c600000000000000000000000000000000000000000000000000000000815233600160a060020a038181166004840190815260248401968752855160448501528551919097169663217fe6c69692959490936064019180838360005b838110156104085781810151838201526020016103f0565b50505050905090810190601f1680156104355780820380516001836020036101000a031916815260200191505b509350505050602060405180830381600087803b15801561045557600080fd5b505af1158015610469573d6000803e3d6000fd5b505050506040513d602081101561047f57600080fd5b5051151561048c57600080fd5b600254604080517fbb9c74c500000000000000000000000000000000000000000000000000000000815233600160a060020a038181166004840190815260248401948552885160448501528851919095169463bb9c74c594929389939192606490910190602085019080838360005b838110156105135781810151838201526020016104fb565b50505050905090810190601f1680156105405780820380516001836020036101000a031916815260200191505b509350505050602060405180830381600087803b15801561056057600080fd5b505af1158015610574573d6000803e3d6000fd5b505050506040513d602081101561058a57600080fd5b5051600160a060020a033381166000818152600360209081526040808320805460018101825590845282842001805495871673ffffffffffffffffffffffffffffffffffffffff199096168617905580518281528951818401528951969750949593947f9bf365fac8cc345f49d252d7842ec9c1aa15c6f8db7de8778677845af7546ddb948a949193849384019290860191908190849084905b8381101561063c578181015183820152602001610624565b50505050905090810190601f1680156106695780820380516001836020036101000a031916815260200191505b509250505060405180910390a350600192915050565b60005433600160a060020a0390811691161461069a57600080fd5b60005460a060020a900460ff16156106b157600080fd5b6000805474ff0000000000000000000000000000000000000000191660a060020a1781556040517f6985a02210a168e66602d3235cb6db0e70f92b3ba4d376a33c0f3d9434bff6259190a1565b600054600160a060020a031681565b60008054819060a060020a900460ff161561072757600080fd5b600154604080518082018252600581527f41646d696e0000000000000000000000000000000000000000000000000000006020820190815282517f217fe6c600000000000000000000000000000000000000000000000000000000815233600160a060020a038181166004840190815260248401968752855160448501528551919097169663217fe6c69692959490936064019180838360005b838110156107d95781810151838201526020016107c1565b50505050905090810190601f1680156108065780820380516001836020036101000a031916815260200191505b509350505050602060405180830381600087803b15801561082657600080fd5b505af115801561083a573d6000803e3d6000fd5b505050506040513d602081101561085057600080fd5b5051151561085d57600080fd5b600154604080517f6174fdd1000000000000000000000000000000000000000000000000000000008152600160a060020a03868116600483015291519190921691636174fdd19160248083019260209291908290030181600087803b1580156108c557600080fd5b505af11580156108d9573d6000803e3d6000fd5b505050506040513d60208110156108ef57600080fd5b505115156108fc57600080fd5b600160a060020a03831660009081526003602052604081205411156109cd575060005b600160a060020a0383166000908152600360205260409020548110156109ac57600160a060020a038316600090815260036020526040902080548290811061096357fe5b6000918252602082200154604051600160a060020a0391821692918616917f2539663bf3e942fd1de554398b2c48ec37e0ea09cb0460d68c8991416eca378791a360010161091f565b600160a060020a03831660009081526003602052604081206109cd91610a6e565b50600192915050565b60005433600160a060020a039081169116146109f157600080fd5b600160a060020a0381161515610a0657600080fd5b60008054604051600160a060020a03808516939216917f8be0079c531659141344cd1fd0a4f28419497f9722a3daafe3b4186f6b6457e091a36000805473ffffffffffffffffffffffffffffffffffffffff1916600160a060020a0392909216919091179055565b5080546000825590600052602060002090810190610a8c9190610a8f565b50565b610aad91905b80821115610aa95760008155600101610a95565b5090565b905600a165627a7a723058201a50fa71a31c9742db0c5b62bac2541d38aa08596be1fa0157e7b30c4bad87200029",
  "source": "pragma solidity ^0.4.23;\n\nimport \"./DMartStoreFactory.sol\";\nimport \"../installed_contracts/zeppelin/contracts/lifecycle/Pausable.sol\";\n\ncontract DMartAdmin {\n    function hasRole(address addr, string roleName) external view returns (bool);\n    function removeStoreOwner(address _storeOwner) external returns (bool); \n}\n\n/**\n * @title DMart Store Management\n * @author Alex Scott (@alsco77)\n * @dev Backbone of marketplace, create, close and access list of stores\n */\ncontract DMartStoreManagement is Pausable {\n\n    DMartAdmin private admin;\n    DMartStoreFactory private storeFactory;\n\n    string private constant ROLE_ADMIN = \"Admin\";\n    string private constant ROLE_STORE_OWNER = \"Store Owner\";\n\n    mapping(address => address[]) private storesByOwner;\n\n    event StoreAdded(address indexed owner, address indexed store, string name);\n    event StoreDeleted(address indexed owner, address indexed store);\n\n   /** \n      * @dev Simple contract constructor\n      * @param _admin Address of Admin contract\n      * @param _storeFactory Address of store factory\n      */\n    constructor(DMartAdmin _admin, DMartStoreFactory _storeFactory) public {\n        admin = DMartAdmin(_admin);\n        storeFactory = DMartStoreFactory(_storeFactory);\n    }\n\n   /** \n      * @dev Get all stores owned by a user\n      * @param _storeOwner Address of owner\n      * @return Array of store addresses\n      */\n    function getStoresByOwner(address _storeOwner) public\n    whenNotPaused\n    view\n    returns(address[]) {\n        return storesByOwner[_storeOwner];\n    }\n\n   /** \n      * @dev Create a store and add it to my collection\n      * @param _storeName Name of store to create\n      * @return Address of new store\n      */\n    function addStore(string _storeName) public\n    whenNotPaused\n    returns(bool success) { \n        require(admin.hasRole(msg.sender, ROLE_STORE_OWNER));\n        \n        DMartStore store = storeFactory.createDMartStore(msg.sender, _storeName);\n        storesByOwner[msg.sender].push(store);\n        emit StoreAdded(msg.sender, store, _storeName);\n        return true;\n    }\n\n   /** \n      * @dev Delete a store owner and remove all his stores\n      * @param _storeOwner Address of owner to delete\n      * @return Success of function\n      */\n    function deleteStoreOwner(address _storeOwner) public\n    whenNotPaused\n    returns(bool){\n        require(admin.hasRole(msg.sender, ROLE_ADMIN));\n        require(admin.removeStoreOwner(_storeOwner));\n\n        if(storesByOwner[_storeOwner].length > 0){\n            for(uint i = 0; i < storesByOwner[_storeOwner].length; i++) {\n                emit StoreDeleted(_storeOwner, storesByOwner[_storeOwner][i]);\n            }\n            delete(storesByOwner[_storeOwner]);\n        }\n        return true;\n    }\n}",
  "sourcePath": "/home/alex/projects/Decentra-Mart/contracts/DMartStoreManagement.sol",
  "compiler": {
    "name": "solc",
    "version": "0.4.23+commit.124ca40d.Emscripten.clang"
  },
  "schemaVersion": "2.0.0",
  "updatedAt": "2018-08-24T22:42:29.592Z"
}