{
  "contractName": "DMartStore",
  "abi": [
    {
      "constant": true,
      "inputs": [],
      "name": "name",
      "outputs": [
        {
          "name": "",
          "type": "string"
        }
      ],
      "payable": false,
      "stateMutability": "view",
      "type": "function"
    },
    {
      "constant": true,
      "inputs": [
        {
          "name": "",
          "type": "uint256"
        }
      ],
      "name": "products",
      "outputs": [
        {
          "name": "id",
          "type": "uint256"
        },
        {
          "name": "name",
          "type": "string"
        },
        {
          "name": "price",
          "type": "uint256"
        },
        {
          "name": "stock",
          "type": "uint16"
        },
        {
          "name": "active",
          "type": "bool"
        }
      ],
      "payable": false,
      "stateMutability": "view",
      "type": "function"
    },
    {
      "constant": true,
      "inputs": [],
      "name": "owner",
      "outputs": [
        {
          "name": "",
          "type": "address"
        }
      ],
      "payable": false,
      "stateMutability": "view",
      "type": "function"
    },
    {
      "constant": true,
      "inputs": [],
      "name": "numberOfProducts",
      "outputs": [
        {
          "name": "",
          "type": "uint256"
        }
      ],
      "payable": false,
      "stateMutability": "view",
      "type": "function"
    },
    {
      "constant": false,
      "inputs": [
        {
          "name": "newOwner",
          "type": "address"
        }
      ],
      "name": "transferOwnership",
      "outputs": [],
      "payable": false,
      "stateMutability": "nonpayable",
      "type": "function"
    },
    {
      "constant": true,
      "inputs": [],
      "name": "open",
      "outputs": [
        {
          "name": "",
          "type": "bool"
        }
      ],
      "payable": false,
      "stateMutability": "view",
      "type": "function"
    },
    {
      "inputs": [
        {
          "name": "_name",
          "type": "string"
        }
      ],
      "payable": false,
      "stateMutability": "nonpayable",
      "type": "constructor"
    },
    {
      "anonymous": false,
      "inputs": [
        {
          "indexed": true,
          "name": "id",
          "type": "uint256"
        },
        {
          "indexed": false,
          "name": "name",
          "type": "string"
        },
        {
          "indexed": false,
          "name": "price",
          "type": "uint256"
        },
        {
          "indexed": false,
          "name": "stock",
          "type": "uint16"
        }
      ],
      "name": "ProductAdded",
      "type": "event"
    },
    {
      "anonymous": false,
      "inputs": [
        {
          "indexed": true,
          "name": "id",
          "type": "uint256"
        }
      ],
      "name": "ProductDeactivated",
      "type": "event"
    },
    {
      "anonymous": false,
      "inputs": [
        {
          "indexed": true,
          "name": "id",
          "type": "uint256"
        },
        {
          "indexed": false,
          "name": "price",
          "type": "uint256"
        }
      ],
      "name": "ProductPriceUpdated",
      "type": "event"
    },
    {
      "anonymous": false,
      "inputs": [
        {
          "indexed": true,
          "name": "id",
          "type": "uint256"
        },
        {
          "indexed": false,
          "name": "stock",
          "type": "uint16"
        }
      ],
      "name": "ProductPurchased",
      "type": "event"
    },
    {
      "anonymous": false,
      "inputs": [],
      "name": "StoreOpened",
      "type": "event"
    },
    {
      "anonymous": false,
      "inputs": [],
      "name": "StoreClosed",
      "type": "event"
    },
    {
      "anonymous": false,
      "inputs": [
        {
          "indexed": true,
          "name": "previousOwner",
          "type": "address"
        },
        {
          "indexed": true,
          "name": "newOwner",
          "type": "address"
        }
      ],
      "name": "OwnershipTransferred",
      "type": "event"
    },
    {
      "constant": false,
      "inputs": [
        {
          "name": "_owner",
          "type": "address"
        },
        {
          "name": "_name",
          "type": "string"
        }
      ],
      "name": "init",
      "outputs": [],
      "payable": false,
      "stateMutability": "nonpayable",
      "type": "function"
    },
    {
      "constant": true,
      "inputs": [],
      "name": "getMeta",
      "outputs": [
        {
          "name": "",
          "type": "string"
        },
        {
          "name": "",
          "type": "bool"
        }
      ],
      "payable": false,
      "stateMutability": "view",
      "type": "function"
    },
    {
      "constant": false,
      "inputs": [
        {
          "name": "_name",
          "type": "string"
        },
        {
          "name": "_price",
          "type": "uint256"
        },
        {
          "name": "_stock",
          "type": "uint16"
        }
      ],
      "name": "addNewProduct",
      "outputs": [
        {
          "name": "",
          "type": "bool"
        }
      ],
      "payable": false,
      "stateMutability": "nonpayable",
      "type": "function"
    },
    {
      "constant": false,
      "inputs": [
        {
          "name": "_productId",
          "type": "uint256"
        }
      ],
      "name": "removeProduct",
      "outputs": [],
      "payable": false,
      "stateMutability": "nonpayable",
      "type": "function"
    },
    {
      "constant": false,
      "inputs": [
        {
          "name": "_productId",
          "type": "uint256"
        },
        {
          "name": "_newPrice",
          "type": "uint256"
        }
      ],
      "name": "changePrice",
      "outputs": [],
      "payable": false,
      "stateMutability": "nonpayable",
      "type": "function"
    },
    {
      "constant": true,
      "inputs": [
        {
          "name": "_productId",
          "type": "uint256"
        }
      ],
      "name": "getProduct",
      "outputs": [
        {
          "name": "",
          "type": "uint256"
        },
        {
          "name": "",
          "type": "string"
        },
        {
          "name": "",
          "type": "uint256"
        },
        {
          "name": "",
          "type": "uint16"
        },
        {
          "name": "",
          "type": "bool"
        }
      ],
      "payable": false,
      "stateMutability": "view",
      "type": "function"
    },
    {
      "constant": true,
      "inputs": [],
      "name": "getProductIds",
      "outputs": [
        {
          "name": "",
          "type": "uint256[]"
        }
      ],
      "payable": false,
      "stateMutability": "view",
      "type": "function"
    },
    {
      "constant": false,
      "inputs": [
        {
          "name": "_productId",
          "type": "uint256"
        }
      ],
      "name": "purchaseProduct",
      "outputs": [],
      "payable": true,
      "stateMutability": "payable",
      "type": "function"
    },
    {
      "constant": true,
      "inputs": [],
      "name": "getBalance",
      "outputs": [
        {
          "name": "",
          "type": "uint256"
        }
      ],
      "payable": false,
      "stateMutability": "view",
      "type": "function"
    },
    {
      "constant": false,
      "inputs": [],
      "name": "withdrawStoreBalance",
      "outputs": [],
      "payable": false,
      "stateMutability": "nonpayable",
      "type": "function"
    },
    {
      "constant": false,
      "inputs": [],
      "name": "closeStore",
      "outputs": [],
      "payable": false,
      "stateMutability": "nonpayable",
      "type": "function"
    },
    {
      "constant": false,
      "inputs": [],
      "name": "reOpenStore",
      "outputs": [],
      "payable": false,
      "stateMutability": "nonpayable",
      "type": "function"
    }
  ],
  "bytecode": "0x608060405260006004553480156200001657600080fd5b50604051620017723803806200177283398101604052805160018054600160a060020a03191633600160a060020a038116919091179091559101906200006690826401000000006200006d810204565b5062000206565b60015474010000000000000000000000000000000000000000900460ff1615620000f857604080517f08c379a000000000000000000000000000000000000000000000000000000000815260206004820152601d60248201527f53746f7265206d757374206e6f7420626520696e697469616c69736564000000604482015290519081900360640190fd5b60018054600160a060020a031916600160a060020a03841617905580516200012890600290602084019062000161565b50506001805460a060020a60ff021916740100000000000000000000000000000000000000001781556003805460ff1916909117905550565b828054600181600116156101000203166002900490600052602060002090601f016020900481019282601f10620001a457805160ff1916838001178555620001d4565b82800160010185558215620001d4579182015b82811115620001d4578251825591602001919060010190620001b7565b50620001e2929150620001e6565b5090565b6200020391905b80821115620001e25760008155600101620001ed565b90565b61155c80620002166000396000f3006080604052600436106100fb5763ffffffff7c010000000000000000000000000000000000000000000000000000000060003504166306fdde03811461010057806312065fe01461018a57806328b8b108146101b157806338e76a03146101c857806347428e7b146101d35780635ee95cae146102385780636d0785661461025057806377298169146102655780637acc0b201461027a5780638da5cb5b1461032b578063a79af2ce1461035c578063b3de019c146103f4578063b9db15b41461040f578063c575ae4714610427578063c66301b2146104a0578063f2fde38b146104b5578063f321b305146104d6578063fcfff16f1461053d575b600080fd5b34801561010c57600080fd5b50610115610552565b6040805160208082528351818301528351919283929083019185019080838360005b8381101561014f578181015183820152602001610137565b50505050905090810190601f16801561017c5780820380516001836020036101000a031916815260200191505b509250505060405180910390f35b34801561019657600080fd5b5061019f6105dd565b60408051918252519081900360200190f35b3480156101bd57600080fd5b506101c661060b565b005b6101c6600435610664565b3480156101df57600080fd5b506101e86108f1565b60408051602080825283518183015283519192839290830191858101910280838360005b8381101561022457818101518382015260200161020c565b505050509050019250505060405180910390f35b34801561024457600080fd5b506101c66004356109a8565b34801561025c57600080fd5b506101c6610ab1565b34801561027157600080fd5b506101c6610b4b565b34801561028657600080fd5b50610292600435610bf9565b6040805186815290810184905261ffff83166060820152811515608082015260a06020808301828152875192840192909252865160c084019188019080838360005b838110156102ec5781810151838201526020016102d4565b50505050905090810190601f1680156103195780820380516001836020036101000a031916815260200191505b50965050505050505060405180910390f35b34801561033757600080fd5b50610340610cde565b60408051600160a060020a039092168252519081900360200190f35b34801561036857600080fd5b50610371610ced565b604051808060200183151515158152602001828103825284818151815260200191508051906020019080838360005b838110156103b85781810151838201526020016103a0565b50505050905090810190601f1680156103e55780820380516001836020036101000a031916815260200191505b50935050505060405180910390f35b34801561040057600080fd5b506101c6600435602435610d8f565b34801561041b57600080fd5b50610292600435610eea565b34801561043357600080fd5b506040805160206004803580820135601f810184900484028501840190955284845261048c943694929360249392840191908190840183828082843750949750508435955050505060209091013561ffff169050611097565b604080519115158252519081900360200190f35b3480156104ac57600080fd5b5061019f6112db565b3480156104c157600080fd5b506101c6600160a060020a03600435166112e1565b3480156104e257600080fd5b5060408051602060046024803582810135601f81018590048502860185019096528585526101c6958335600160a060020a031695369560449491939091019190819084018382808284375094975061137a9650505050505050565b34801561054957600080fd5b5061048c61146f565b6002805460408051602060018416156101000260001901909316849004601f810184900484028201840190925281815292918301828280156105d55780601f106105aa576101008083540402835291602001916105d5565b820191906000526020600020905b8154815290600101906020018083116105b857829003601f168201915b505050505081565b60015460009033600160a060020a039081169116146105fb57600080fd5b50600160a060020a033016315b90565b60015433600160a060020a0390811691161461062657600080fd5b600154604051600160a060020a039182169130163180156108fc02916000818181858888f19350505050158015610661573d6000803e3d6000fd5b50565b60035460ff1615156106ae576040805160e560020a62461bcd0281526020600482015260126024820152600080516020611511833981519152604482015290519081900360640190fd5b806005818154811015156106be57fe5b600091825260209091206004909102016003015462010000900460ff161515600114610734576040805160e560020a62461bcd02815260206004820152601660248201527f50726f64756374206d7573742062652061637469766500000000000000000000604482015290519081900360640190fd5b81600060058281548110151561074657fe5b600091825260209091206003600490920201015461ffff16116107b3576040805160e560020a62461bcd02815260206004820152601760248201527f50726f64756374206d75737420686176652073746f636b000000000000000000604482015290519081900360640190fd5b60058054849081106107c157fe5b9060005260206000209060040201600201543410151515610852576040805160e560020a62461bcd02815260206004820152602560248201527f4d657373616765206d75737420636f6e7461696e2076616c7565206f6620707260448201527f6f64756374000000000000000000000000000000000000000000000000000000606482015290519081900360840190fd5b600160058481548110151561086357fe5b60009182526020909120600490910201600301805461ffff19811661ffff91821693909303169190911790556005805484917fedf603b7105ccc30f47717fdd1ad3a9c72def310f472e046390b0164933cbc9091839081106108c157fe5b6000918252602091829020600360049092020101546040805161ffff9092168252519081900390910190a2505050565b600354606090819060009060ff161515610943576040805160e560020a62461bcd0281526020600482015260126024820152600080516020611511833981519152604482015290519081900360640190fd5b60045460405190808252806020026020018201604052801561096f578160200160208202803883390190505b509150600090505b6004548110156109a25780828281518110151561099057fe5b60209081029091010152600101610977565b50919050565b60015433600160a060020a039081169116146109c357600080fd5b806005818154811015156109d357fe5b600091825260209091206004909102016003015462010000900460ff161515600114610a49576040805160e560020a62461bcd02815260206004820152601660248201527f50726f64756374206d7573742062652061637469766500000000000000000000604482015290519081900360640190fd5b6000600583815481101515610a5a57fe5b6000918252602082206003600490920201018054921515620100000262ff0000199093169290921790915560405183917f241c84b17626110b8c42e26f8f7de483066e7f266953509e01046f09e6fdd6cc91a25050565b60015433600160a060020a03908116911614610acc57600080fd5b60035460ff161515610b16576040805160e560020a62461bcd0281526020600482015260126024820152600080516020611511833981519152604482015290519081900360640190fd5b6003805460ff191690556040517fd7cad18437c1bc766a3a41aecb11839700c59bd12fc3532673b814599ec9676090600090a1565b60015433600160a060020a03908116911614610b6657600080fd5b60035460ff1615610bc1576040805160e560020a62461bcd02815260206004820152601460248201527f53746f7265206d75737420626520636c6f736564000000000000000000000000604482015290519081900360640190fd5b6003805460ff191660011790556040517f578f1b59adec7cfb1738fd8bb142d425ae1e464471769792d3d173bb9218efc890600090a1565b6005805482908110610c0757fe5b9060005260206000209060040201600091509050806000015490806001018054600181600116156101000203166002900480601f016020809104026020016040519081016040528092919081815260200182805460018160011615610100020316600290048015610cb95780601f10610c8e57610100808354040283529160200191610cb9565b820191906000526020600020905b815481529060010190602001808311610c9c57829003601f168201915b50505050600283015460039093015491929161ffff8116915062010000900460ff1685565b600154600160a060020a031681565b6003546002805460408051602061010060018516150260001901909316849004601f81018490048402820184019092528181526060946000949360ff909116928491830182828015610d805780601f10610d5557610100808354040283529160200191610d80565b820191906000526020600020905b815481529060010190602001808311610d6357829003601f168201915b50505050509150915091509091565b60015433600160a060020a03908116911614610daa57600080fd5b81600581815481101515610dba57fe5b600091825260209091206004909102016003015462010000900460ff161515600114610e30576040805160e560020a62461bcd02815260206004820152601660248201527f50726f64756374206d7573742062652061637469766500000000000000000000604482015290519081900360640190fd5b60008211610e88576040805160e560020a62461bcd02815260206004820181905260248201527f4e6577207072696365206d7573742062652067726561746572207468616e2030604482015290519081900360640190fd5b81600584815481101515610e9857fe5b906000526020600020906004020160020181905550827f2632f9f215a9d4e060233752c6b3601cb9bf0075be4af3f004dc9f4742eaf1f3836040518082815260200191505060405180910390a2505050565b60035460009060609082908190819060ff161515610f40576040805160e560020a62461bcd0281526020600482015260126024820152600080516020611511833981519152604482015290519081900360640190fd5b6005805487908110610f4e57fe5b906000526020600020906004020160000154600587815481101515610f6f57fe5b9060005260206000209060040201600101600588815481101515610f8f57fe5b906000526020600020906004020160020154600589815481101515610fb057fe5b60009182526020909120600360049092020101546005805461ffff909216918b908110610fd957fe5b6000918252602091829020600491909102016003015484546040805160026101006001851615026000190190931692909204601f81018590048502830185019091528082526201000090920460ff16929091869183018282801561107e5780601f106110535761010080835404028352916020019161107e565b820191906000526020600020905b81548152906001019060200180831161106157829003601f168201915b50989f939e50959c50939a509198509650505050505050565b600154600090819033600160a060020a039081169116146110b757600080fd5b600085511180156110c85750600084115b80156110d8575060008361ffff16115b151561112e576040805160e560020a62461bcd02815260206004820152601f60248201527f50726f647563742064657461696c732063616e6e6f7420626520656d70747900604482015290519081900360640190fd5b5060048054600180820183556040805160a08101825283815260208082018a815292820189905261ffff8816606083015260808201849052600580549485018082556000919091528251949096027f036b6384b5eca791c62761152d0c79bb0604c104a5fb6f4eb0703f3154bb3db08101948555925180519596959294936111df937f036b6384b5eca791c62761152d0c79bb0604c104a5fb6f4eb0703f3154bb3db1909101929190910190611478565b5060408281015160028301556060808401516003909301805460809586015161ffff1990911661ffff9586161762ff000019166201000091151591909102179055815160208082018b90529389169281019290925280825289519082015288518594507f14735431ae3b375149c1ff3393928abf2b88363f6b995089b20c403687b2017d938a938a938a9390928392908301919087019080838360005b8381101561129457818101518382015260200161127c565b50505050905090810190601f1680156112c15780820380516001836020036101000a031916815260200191505b5094505050505060405180910390a2506001949350505050565b60045481565b60015433600160a060020a039081169116146112fc57600080fd5b600160a060020a038116151561131157600080fd5b600154604051600160a060020a038084169216907f8be0079c531659141344cd1fd0a4f28419497f9722a3daafe3b4186f6b6457e090600090a36001805473ffffffffffffffffffffffffffffffffffffffff1916600160a060020a0392909216919091179055565b60015474010000000000000000000000000000000000000000900460ff16156113ed576040805160e560020a62461bcd02815260206004820152601d60248201527f53746f7265206d757374206e6f7420626520696e697469616c69736564000000604482015290519081900360640190fd5b6001805473ffffffffffffffffffffffffffffffffffffffff1916600160a060020a0384161790558051611428906002906020840190611478565b50506001805474ff00000000000000000000000000000000000000001916740100000000000000000000000000000000000000001781556003805460ff1916909117905550565b60035460ff1681565b828054600181600116156101000203166002900490600052602060002090601f016020900481019282601f106114b957805160ff19168380011785556114e6565b828001600101855582156114e6579182015b828111156114e65782518255916020019190600101906114cb565b506114f29291506114f6565b5090565b61060891905b808211156114f257600081556001016114fc560053746f7265206d757374206265206f70656e0000000000000000000000000000a165627a7a723058207380bf209cee182e4b226365fffe0f31e1b9279744bc782e58d2924df880718e0029",
  "source": "pragma solidity ^0.4.23;\n\nimport \"../installed_contracts/zeppelin/contracts/ownership/Ownable.sol\";\nimport \"../installed_contracts/zeppelin/contracts/math/SafeMath.sol\";\nimport \"./Proxy.sol\";\n\n/**\n * @title DMart Store\n * @author Alex Scott (@alsco77)\n * @dev Manage role access for usage with DMartStore contracts\n */\ncontract DMartStore is ProxyData, Ownable {\n\n    bool private isInitialised;\n    \n    string public name;\n    bool public open;\n\n    struct Product{\n        uint id;\n        string name;\n        uint price;\n        uint16 stock;\n        bool active;\n    }\n\n    uint public numberOfProducts = 0;\n    Product[] public products;\n\n    event ProductAdded(uint indexed id, string name, uint price, uint16 stock);\n    event ProductDeactivated(uint indexed id);\n    event ProductPriceUpdated(uint indexed id, uint price);\n    event ProductPurchased(uint indexed id, uint16 stock);\n\n    event StoreOpened();\n    event StoreClosed();\n\n    /** @dev Default constructor for base template */\n    constructor(string _name) public {\n        init(msg.sender, _name);\n    }\n    \n    /** \n      * @dev Initialises the store, called from Factory\n      * @param _owner Owner of the store\n      * @param _name Name of the store\n      */\n    function init(address _owner, string _name) public {\n        require(!isInitialised, \"Store must not be initialised\");\n        owner = _owner;\n        name = _name;\n        isInitialised = true;\n        open = true;\n    }\n\n    /** \n      * @dev Modifier - requires store to be open\n      */\n    modifier storeIsOpen() {\n        require(open, \"Store must be open\");\n        _;\n    }\n    /** \n      * @dev Modifier - requires store to be closed\n      */\n    modifier storeIsClosed() {\n        require(!open, \"Store must be closed\");\n        _;\n    }\n    /** \n      * @dev Modifier - requires product to exist in store\n      */\n    modifier productExists(uint _productId) {\n        require(products.length > _productId, \"Product must exist in store\");\n        _;\n    }\n    /** \n      * @dev Modifier - requires product to be active\n      */\n    modifier productIsActive(uint _productId) {\n        require(products[_productId].active == true, \"Product must be active\");\n        _;\n    }\n    /** \n      * @dev Modifier - requires product to have stock > 0\n      */\n    modifier productHasStock(uint _productId) {\n        require(products[_productId].stock > 0, \"Product must have stock\");\n        _;\n    }\n\n    /** \n      * @dev Get the basic store details\n      * @return string name, bool isopen\n      */\n    function getMeta() external\n    view\n    returns(string, bool) {\n        return(\n            name,\n            open\n        );\n    }\n\n    /** \n      * @dev Add a new product to the store\n      * @param _name Name of product\n      * @param _price Price of product\n      * @param _stock Amount of stock\n      * @return bool adding success\n      */\n    function addNewProduct(string _name, uint _price, uint16 _stock) public \n    onlyOwner\n    returns (bool) {\n        require(bytes(_name).length > 0 && _price > 0 && _stock > 0, \"Product details cannot be empty\");\n        uint id = numberOfProducts++;\n        products.push(Product(id, _name, _price, _stock, true));\n        emit ProductAdded(id, _name, _price, _stock);\n        return true;\n    }\n\n    /** \n      * @dev Removes a product by deactivating it\n      * @param _productId Id of product\n      */\n    function removeProduct(uint _productId) public \n    onlyOwner\n    productIsActive(_productId) {\n        products[_productId].active = false;\n        emit ProductDeactivated(_productId);\n    }\n\n    /** \n      * @dev Change the price of a product\n      * @param _productId Identifier\n      * @param _newPrice Updated price\n      */\n    function changePrice(uint _productId, uint _newPrice) external\n    onlyOwner \n    productIsActive(_productId) {\n        require(_newPrice > 0, \"New price must be greater than 0\");\n        products[_productId].price = _newPrice;\n        emit ProductPriceUpdated(_productId, _newPrice);\n    }\n\n    /** \n      * @dev Get a products details\n      * @param _productId Identifier\n      * @return all Product fields\n      */\n    function getProduct(uint _productId) external\n    view\n    storeIsOpen\n    returns(uint, string, uint, uint16, bool) {\n        return (\n            products[_productId].id,\n            products[_productId].name,\n            products[_productId].price,\n            products[_productId].stock,\n            products[_productId].active\n        );\n    }\n\n    /** \n      * @dev Get all products\n      * @return Ids of all products\n      */\n    function getProductIds() external\n    view\n    storeIsOpen\n    returns(uint[]) {\n        uint[] memory productIds = new uint[](numberOfProducts);\n        for(uint i = 0; i < numberOfProducts; i++){\n            productIds[i] = i;\n        }\n        return (\n            productIds\n        );\n    }\n\n    /** \n      * @dev Purchase a product from the store\n      * @param _productId Product identifier\n      */\n    function purchaseProduct(uint _productId) external\n    payable\n    storeIsOpen \n    productIsActive(_productId)\n    productHasStock(_productId) {\n        require(msg.value >= products[_productId].price, \"Message must contain value of product\");\n\n        products[_productId].stock -= 1;\n\n        emit ProductPurchased(_productId, products[_productId].stock);\n    }\n\n    /** \n      * @dev Get the current balance of store\n      * @return uint balance in wei\n      */\n    function getBalance() external\n    view\n    onlyOwner\n    returns(uint) {\n        return address(this).balance;\n    }\n\n    /** \n      * @dev Store owner can withdraw balance from sales\n      */\n    function withdrawStoreBalance() external \n    onlyOwner {\n        owner.transfer(address(this).balance);\n    }\n\n    /** \n      * @dev Close the store for business\n      */\n    function closeStore() external\n    onlyOwner\n    storeIsOpen {\n        open = false;\n        emit StoreClosed();\n    }\n\n    /** \n      * @dev Open the store for business\n      */\n    function reOpenStore() external\n    onlyOwner\n    storeIsClosed {\n        open = true;\n        emit StoreOpened();\n    }\n}",
  "sourcePath": "/home/alex/projects/Decentra-Mart/contracts/DMartStore.sol",
  "compiler": {
    "name": "solc",
    "version": "0.4.23+commit.124ca40d.Emscripten.clang"
  },
  "schemaVersion": "2.0.0",
  "updatedAt": "2018-08-24T22:42:29.602Z"
}