{
  "contractName": "DMartAdmin",
  "abi": [
    {
      "constant": true,
      "inputs": [
        {
          "name": "_operator",
          "type": "address"
        },
        {
          "name": "_role",
          "type": "string"
        }
      ],
      "name": "checkRole",
      "outputs": [],
      "payable": false,
      "stateMutability": "view",
      "type": "function"
    },
    {
      "constant": true,
      "inputs": [
        {
          "name": "_operator",
          "type": "address"
        },
        {
          "name": "_role",
          "type": "string"
        }
      ],
      "name": "hasRole",
      "outputs": [
        {
          "name": "",
          "type": "bool"
        }
      ],
      "payable": false,
      "stateMutability": "view",
      "type": "function"
    },
    {
      "constant": true,
      "inputs": [],
      "name": "ROLE_STORE_OWNER",
      "outputs": [
        {
          "name": "",
          "type": "string"
        }
      ],
      "payable": false,
      "stateMutability": "view",
      "type": "function"
    },
    {
      "constant": true,
      "inputs": [],
      "name": "ROLE_ADMIN",
      "outputs": [
        {
          "name": "",
          "type": "string"
        }
      ],
      "payable": false,
      "stateMutability": "view",
      "type": "function"
    },
    {
      "inputs": [],
      "payable": false,
      "stateMutability": "nonpayable",
      "type": "constructor"
    },
    {
      "anonymous": false,
      "inputs": [
        {
          "indexed": true,
          "name": "operator",
          "type": "address"
        },
        {
          "indexed": false,
          "name": "role",
          "type": "string"
        }
      ],
      "name": "RoleAdded",
      "type": "event"
    },
    {
      "anonymous": false,
      "inputs": [
        {
          "indexed": true,
          "name": "operator",
          "type": "address"
        },
        {
          "indexed": false,
          "name": "role",
          "type": "string"
        }
      ],
      "name": "RoleRemoved",
      "type": "event"
    },
    {
      "constant": false,
      "inputs": [
        {
          "name": "_storeOwner",
          "type": "address"
        }
      ],
      "name": "addStoreOwner",
      "outputs": [
        {
          "name": "",
          "type": "bool"
        }
      ],
      "payable": false,
      "stateMutability": "nonpayable",
      "type": "function"
    },
    {
      "constant": false,
      "inputs": [
        {
          "name": "_storeOwner",
          "type": "address"
        }
      ],
      "name": "removeStoreOwner",
      "outputs": [
        {
          "name": "",
          "type": "bool"
        }
      ],
      "payable": false,
      "stateMutability": "nonpayable",
      "type": "function"
    }
  ],
  "bytecode": "0x608060405234801561001057600080fd5b5061005f336040805190810160405280600581526020017f41646d696e000000000000000000000000000000000000000000000000000000815250610064640100000000026401000000009004565b610203565b6100ee826000836040518082805190602001908083835b6020831015156100a0578051825260208201915060208101905060208303925061007b565b6001836020036101000a03801982511681845116808217855250505050505090500191505090815260200160405180910390206101a564010000000002610a52179091906401000000009004565b8173ffffffffffffffffffffffffffffffffffffffff167fbfec83d64eaa953f2708271a023ab9ee82057f8f3578d548c1a4ba0b5b700489826040518080602001828103825283818151815260200191508051906020019080838360005b8381101561016757808201518184015260208101905061014c565b50505050905090810190601f1680156101945780820380516001836020036101000a031916815260200191505b509250505060405180910390a25050565b60018260000160008373ffffffffffffffffffffffffffffffffffffffff1673ffffffffffffffffffffffffffffffffffffffff16815260200190815260200160002060006101000a81548160ff0219169083151502179055505050565b610adc806102126000396000f300608060405260043610610078576000357c0100000000000000000000000000000000000000000000000000000000900463ffffffff1680630988ca8c1461007d578063217fe6c6146101065780636174fdd1146101a7578063804ce1df146102025780639adeb5f114610292578063d391014b146102ed575b600080fd5b34801561008957600080fd5b50610104600480360381019080803573ffffffffffffffffffffffffffffffffffffffff169060200190929190803590602001908201803590602001908080601f016020809104026020016040519081016040528093929190818152602001838380828437820191505050505050919291929050505061037d565b005b34801561011257600080fd5b5061018d600480360381019080803573ffffffffffffffffffffffffffffffffffffffff169060200190929190803590602001908201803590602001908080601f01602080910402602001604051908101604052809392919081815260200183838082843782019150505050505091929192905050506103fe565b604051808215151515815260200191505060405180910390f35b3480156101b357600080fd5b506101e8600480360381019080803573ffffffffffffffffffffffffffffffffffffffff169060200190929190505050610485565b604051808215151515815260200191505060405180910390f35b34801561020e57600080fd5b50610217610596565b6040518080602001828103825283818151815260200191508051906020019080838360005b8381101561025757808201518184015260208101905061023c565b50505050905090810190601f1680156102845780820380516001836020036101000a031916815260200191505b509250505060405180910390f35b34801561029e57600080fd5b506102d3600480360381019080803573ffffffffffffffffffffffffffffffffffffffff1690602001909291905050506105cf565b604051808215151515815260200191505060405180910390f35b3480156102f957600080fd5b506103026106e1565b6040518080602001828103825283818151815260200191508051906020019080838360005b83811015610342578082015181840152602081019050610327565b50505050905090810190601f16801561036f5780820380516001836020036101000a031916815260200191505b509250505060405180910390f35b6103fa826000836040518082805190602001908083835b6020831015156103b95780518252602082019150602081019050602083039250610394565b6001836020036101000a038019825116818451168082178552505050505050905001915050908152602001604051809103902061071a90919063ffffffff16565b5050565b600061047d836000846040518082805190602001908083835b60208310151561043c5780518252602082019150602081019050602083039250610417565b6001836020036101000a038019825116818451168082178552505050505050905001915050908152602001604051809103902061073390919063ffffffff16565b905092915050565b60006040805190810160405280600581526020017f41646d696e0000000000000000000000000000000000000000000000000000008152506104c7338261037d565b600073ffffffffffffffffffffffffffffffffffffffff168373ffffffffffffffffffffffffffffffffffffffff161415151561050357600080fd5b610542836040805190810160405280600b81526020017f53746f7265204f776e65720000000000000000000000000000000000000000008152506103fe565b151561054d57600080fd5b61058c836040805190810160405280600b81526020017f53746f7265204f776e657200000000000000000000000000000000000000000081525061078c565b6001915050919050565b6040805190810160405280600b81526020017f53746f7265204f776e657200000000000000000000000000000000000000000081525081565b60006040805190810160405280600581526020017f41646d696e000000000000000000000000000000000000000000000000000000815250610611338261037d565b600073ffffffffffffffffffffffffffffffffffffffff168373ffffffffffffffffffffffffffffffffffffffff161415151561064d57600080fd5b61068c836040805190810160405280600b81526020017f53746f7265204f776e65720000000000000000000000000000000000000000008152506103fe565b15151561069857600080fd5b6106d7836040805190810160405280600b81526020017f53746f7265204f776e65720000000000000000000000000000000000000000008152506108c0565b6001915050919050565b6040805190810160405280600581526020017f41646d696e00000000000000000000000000000000000000000000000000000081525081565b6107248282610733565b151561072f57600080fd5b5050565b60008260000160008373ffffffffffffffffffffffffffffffffffffffff1673ffffffffffffffffffffffffffffffffffffffff16815260200190815260200160002060009054906101000a900460ff16905092915050565b610809826000836040518082805190602001908083835b6020831015156107c857805182526020820191506020810190506020830392506107a3565b6001836020036101000a03801982511681845116808217855250505050505090500191505090815260200160405180910390206109f490919063ffffffff16565b8173ffffffffffffffffffffffffffffffffffffffff167fd211483f91fc6eff862467f8de606587a30c8fc9981056f051b897a418df803a826040518080602001828103825283818151815260200191508051906020019080838360005b83811015610882578082015181840152602081019050610867565b50505050905090810190601f1680156108af5780820380516001836020036101000a031916815260200191505b509250505060405180910390a25050565b61093d826000836040518082805190602001908083835b6020831015156108fc57805182526020820191506020810190506020830392506108d7565b6001836020036101000a0380198251168184511680821785525050505050509050019150509081526020016040518091039020610a5290919063ffffffff16565b8173ffffffffffffffffffffffffffffffffffffffff167fbfec83d64eaa953f2708271a023ab9ee82057f8f3578d548c1a4ba0b5b700489826040518080602001828103825283818151815260200191508051906020019080838360005b838110156109b657808201518184015260208101905061099b565b50505050905090810190601f1680156109e35780820380516001836020036101000a031916815260200191505b509250505060405180910390a25050565b60008260000160008373ffffffffffffffffffffffffffffffffffffffff1673ffffffffffffffffffffffffffffffffffffffff16815260200190815260200160002060006101000a81548160ff0219169083151502179055505050565b60018260000160008373ffffffffffffffffffffffffffffffffffffffff1673ffffffffffffffffffffffffffffffffffffffff16815260200190815260200160002060006101000a81548160ff02191690831515021790555050505600a165627a7a72305820dd79fceb43236069de167c81ff19962c48c393f97f5733faad1a7d8ee619a2750029",
  "source": "pragma solidity ^0.4.23;\n\nimport \"./access/RBAC.sol\";\n// import \"../installed_contracts/simple-multisig/contracts/SimpleMultisig.sol\";\n\n// Set up the admin and store owner roles here, allow 3 admins to add a new admin? Then hook the DMartStoreOwner contract in to use the roles\n// Have a DMartStore factory create deletable, upgradable store contract for each new store being created (only owner can call any func)\n\ncontract DMartAdmin is RBAC {\n    \n    string public constant ROLE_ADMIN = \"Admin\";\n    string public constant ROLE_STORE_OWNER = \"Store Owner\";\n\n    constructor() public {\n        addRole(msg.sender, ROLE_ADMIN);\n    }\n\n    function addStoreOwner(address _storeOwner) public \n    onlyRole(ROLE_ADMIN) \n    returns (bool) {\n        require(_storeOwner != address(0));\n        require(!hasRole(_storeOwner, ROLE_STORE_OWNER));\n        \n        addRole(_storeOwner, ROLE_STORE_OWNER);\n        return(true);\n    } \n\n    function removeStoreOwner(address _storeOwner) public \n    onlyRole(ROLE_ADMIN) \n    returns (bool) {\n        require(_storeOwner != address(0));\n        require(hasRole(_storeOwner, ROLE_STORE_OWNER));\n\n        removeRole(_storeOwner, ROLE_STORE_OWNER);\n        return(true);\n    } \n}\n",
  "sourcePath": "/Users/alsco/Projects/Decentra-Mart/contracts/DMartAdmin.sol",
  "compiler": {
    "name": "solc",
    "version": "0.4.24+commit.e67f0147.Emscripten.clang"
  },
  "schemaVersion": "2.0.1",
  "updatedAt": "2018-08-11T09:00:37.333Z"
}